:020000040804EE
:100000000000082461990808AD9908086DB4070834
:1000100073B4070879B407087FB40708000000002C
:100020000000000000000000000000001D60040847
:10003000AD99080800000000B7600408C760040814
:10004000AD990808AD990808AD990808AD99080858
:10005000AD990808AD990808AD990808AD99080848
:10006000AD990808AD990808AD990808AD99080838
:10007000AD990808AD990808AD990808AD99080828
:10008000AD990808AD990808AD9908083DA8080879
:100090004DA8080849A8080859A80808AD990808F3
:1000A000AD990808AD990808AD990808AD990808F8
:1000B000AD990808AD990808AD990808AD990808E8
:1000C000AD990808AD990808AD990808AD990808D8
:1000D000AD990808AD990808AD990808AD990808C8
:1000E000AD990808AD99080800000000AD9908080E
:1000F000AD990808AD990808AD990808AD990808A8
:10010000AD990808D9900808AD990808AD99080874
:10011000AD990808AD990808AD990808AD99080887
:10012000AD990808AD990808AD990808AD99080877
:10013000AD990808AD990808AD990808AD99080867
:10014000AD990808AD990808000000000000000003
:10015000AD990808AD990808AD990808AD99080847
:10016000AD990808AD990808AD990808AD99080837
:10017000AD990808AD990808AD990808000000007D
:10018000AD990808AD990808AD990808AD99080817
:10019000AD990808AD990808AD990808AD99080807
:1001A000AD990808AD990808AD990808AD990808F7
:1001B000AD990808AD990808AD990808AD990808E7
:1001C000AD990808AD990808AD990808AD990808D7
:1001D000AD990808AD990808AD990808AD990808C7
:1001E000AD990808AD990808AD990808AD990808B7
:1001F000AD990808AD990808AD990808AD990808A7
:10020000AD990808AD990808AD990808AD99080896
:10021000AD990808AD990808AD990808AD99080886
:10022000AD990808AD990808AD990808AD99080876
:10023000AD9908085D990808AD990808AD990808B6
:10024000AD990808AD990808AD990808AD99080856
:10025000AD990808AD990808AD990808AD99080846
:10026000AD990808AD990808AD990808AD99080836
:10027000AD990808AD990808AD990808AD99080826
:10028000AD990808AD990808AD990808000000006C
:10029000AD990808AD99080810B5054C237833B915
:1002A000044B13B10448AFF300800123237010BD49
:1002B0008014002400000000509F0A0808B5034B7A
:1002C0001BB103490348AFF3008008BD00000000E4
:1002D00084140024509F0A08154B002B08BF134BB1
:1002E0009D46A3F5803A00218B460F461348144AD9
:1002F000121A51F0E5FB0F4B002B00D098470E4B24
:10030000002B00D098470020002104000D000D486C
:10031000002802D00C483CF067F850F087FD200020
:10032000290008F08BF83CF07BFA00BF00000800C1
:1003300000000824000000009983040880140024B1
:10034000A8FC0024E9C30708000000000020704753
:10035000044B10B5044640F85C3B05F03FFB2046DB
:1003600010BD00BF2894090838B50B4B05464469F9
:1003700003607CB16368013B63605BB9236820461E
:100380009B689847A368013BA3601BB9236820467C
:10039000DB689847284638BD9492090838B50B4C5D
:1003A0000B4D0C49204605F059FA05F0DBFC296895
:1003B0000A22411A204605F0D8FA05F0D3FC28603D
:1003C0002046BDE8384005F057BA00BF141C002491
:1003D000A8150024C88A09082DE9F04198B0424DBB
:1003E000424E4422424907A851F06CFA07AC2868F3
:1003F00006F110082A793F4F03908DF81020B6ECD3
:10040000017A3A46052103A8B7EEC77A11348DED7B
:10041000007B51F0CDFD9DF80C3096ED037A3A4605
:1004200004F80F3C05219DF80D30B7EEC77A03A8FC
:1004300004F80E3C9DF80E3004F80D3C9DF80F308A
:1004400004F80C3C8DED007B51F0B2FD9DF80C30B2
:10045000464504F8083C9DF80D3004F8073C9DF82B
:100460000E3004F8063C9DF80F3004F8053CC6D168
:100470002B79052128688DF818301F4B1D4A93ED04
:10048000007A059005A8B7EEC77A8DED007B51F094
:100490008FFD9DF8143019498DF82B309DF81530DB
:1004A00017488DF83C309DF816308DF84D309DF88A
:1004B00017308DF85E3005F0D1F907A9104805F026
:1004C000CDF90DF12D010E4805F0C8F90DF13E01F1
:1004D0000B4805F0C3F90DF14F01094805F0BEF9CD
:1004E00018B0BDE8F08100BFD88B0908E4140024DF
:1004F000408A0908D08E09080016002416DC090875
:100500006C1800242DE9F04798B03C4B04460EAA25
:1005100003F1100715461868083353F8041C1646F3
:10052000BB4203C63246F6D11B7813AA3370174676
:10053000334B03F1100C1868083353F8041C1646AB
:10054000634503C63246F6D11B780DF108082D4AE3
:100550000F21337040462C4B4FEA840A0DF12809D5
:1005600006AE53F82430313451F022FD274A0F21D2
:100570004846524492ED007A254AB7EEC77A8DED8F
:10058000007B51F015FD234B214A0F215344304687
:1005900093ED007AB7EEC77A8DED007B51F008FD40
:1005A0000DF14E0200238DF83D40E91818F80300C4
:1005B000087319F803109172F15C0133042B02F8EF
:1005C000011FF2D11449154805F048F9294613488E
:1005D00005F044F91249114805F040F950210F483F
:1005E00005F040F939460D4805F038F90D490B483A
:1005F00005F034F918B0BDE8F08700BFDD8B0908BD
:10060000EE8B0908BF1F0A0828000024B01500243B
:10061000D08E0908E414002416DC09086C180024A4
:10062000F2E10908BC8B0908F0B595B044223049C5
:1006300003A8304D51F046F92F4B03AC05F11007DC
:1006400018682E4E1B7901908DF80830F5EC017A70
:100650003246052101A8FDEEE77A113417EE903AF3
:1006600051F0A6FC9DF80430D5ED037A324604F82B
:100670000F3C05219DF80530FDEEE77A01A804F84E
:100680000E3C9DF8063004F80D3C9DF8073004F848
:100690000C3C17EE903A51F08BFC9DF80430BD42B3
:1006A00004F8073C9DF8053004F8063C9DF8063038
:1006B00004F8053C9DF8073004F8043CC6D1104905
:1006C000104805F0CBF803A90E4805F0C7F80DF166
:1006D0001D010C4805F0C2F80DF12E01094805F086
:1006E000BDF80DF13F01074805F0B8F815B0F0BDB1
:1006F000848A0908B0150024D88B0908EC8C0908F5
:1007000016DC09086C1800242DE9F04F424C85B026
:10071000424D002104F1200023462A4643F8041BE1
:10072000834242F8041BF9D13D4F0026DFF80081D7
:10073000BA463B68B34248DD002198F8000005F056
:10074000F3FB0A2005F020FB364A0023DFF8E49093
:100750009346D05CCDE9012305F04AFB029B019A48
:1007600049F823000133082BF3D1012198F8000048
:1007700005F0DAFB0A2005F007FB2B4900230A46A7
:100780001BF803000193CDE9021205F031FB039A37
:10079000DDE9013141F823000133082BF0D1A446F3
:1007A000002152F8213059F8210001319CED007AE6
:1007B0001B1A082907EE903AF8EEE77A77EE877A67
:1007C000ECEC017AEDD10136B3E70026174FDAEDF4
:1007D000007AD4ED006AF8EEE77A57F82630013651
:1007E00086EEA77A07EE903AF8EEE77AC7EE277A18
:1007F000A4EC017A17EE900A4FF072F880F00040F6
:10080000082E45F8040BE2D1094B0021187805B0F9
:10081000BDE8F04F05F088BBB0150024E4140024B7
:10082000580000241F8F0908C41400242800002445
:1008300054000024A41400240A4B1B7807B563B1AC
:100840006846094A094901F022FB00220649074887
:1008500003B05DF804EB01F0A7BB054803B05DF8F9
:1008600004FB00BF04160024F8150024D81500244A
:1008700000007AC42DE9F0411C4904251C481D4F95
:1008800005F014F8DFF874801B4E1C4801F029FABB
:1008900000223946404601F024F9044620BB314687
:1008A000134805F003F84FF47A7005F06DFA013D36
:1008B000EED100230B220F49104801F051FA1049E4
:1008C0000B4804F0CBFF0B490C4801F0E6F90A2273
:1008D0000146074805F058F8054804F0CDFFFFF73A
:1008E000ABFF2046BDE8F0810124E2E7D58E090880
:1008F000141C0024F8150024E68E0908D8150024DD
:100900000B8F090830B5164C87B0164D1649204696
:1009100004F0A4FF284601F0B6FB0146204604F08F
:10092000C5FF2946684602F0EFFC1049204604F056
:1009300095FF6946204604F0C3FF284601F0F7FB07
:1009400005460B49204604F089FF0A222946204625
:1009500004F0DDFF0749204604F0A8FF07B030BDD2
:10096000141C002454160024BB8C0908C28C0908EE
:10097000CF8C0908E78C09081C4B70B5186838F053
:10098000C9F91B4801F0DBFBFF281AD0184D194E9E
:10099000194C174801F0D3FB03281FD031462046DD
:1009A00004F05CFF1549204604F080FF0923144A37
:1009B0002846124901F0EEFC40F6B83005F0E4F9A3
:1009C000E7E710490C4804F071FF0F490F4804F0A5
:1009D00045FF0F490D4804F041FFFEE70D49064869
:1009E00004F064FFBDE87040FFF78CBF08160024D8
:1009F00054160024218B0908141C002460000024D4
:100A0000D4150024E78A09080BDD09086C180024B6
:100A10000E8B09084A8B090870B505F0A3F93B490C
:100A200004463B4804F01AFF3A49394804F59C54FF
:100A300004F014FF38493648083404F00FFF3749F2
:100A4000334804F00BFF3449314804F007FF3449C0
:100A50002F4804F003FF334E2F492D4804F0FEFECB
:100A600031492B4804F0FAFE05F07CF984424BD959
:100A70002E4D306838F04EF9287805F09BFA0028A2
:100A80003CD12B492B4804F011FF2B49294804F095
:100A90000DFF1E491E4804F0E1FE28491C4804F0E1
:100AA000DDFE1D491A4804F0D9FE2549184804F016
:100AB000D5FE1949164804F0D1FE2249144804F025
:100AC000CDFE1549124804F0C9FE1F49104804F034
:100AD000C5FE40F6B83005F057F9306838F01AF91D
:100AE000FFF712FEFFF7A0FD4FF4FA7005F04CF986
:100AF000287805F05FFA0028EFD105E0134B187F46
:100B000005F058FA0028AFD170BD00BF0BDD090811
:100B10006C180024FF8B09083EDD09080F8C0908BA
:100B2000198C090808160024998C0908480000242B
:100B3000298C0908141C0024478C09088F8C09088B
:100B40009E8C0908AE8C0908818C090808000024D5
:100B500010B504460A2204F0FCFE204610BD000039
:100B600038B5104C05461049204604F077FE0F4971
:100B7000204604F073FE691C2046FFF7E9FF0C498C
:100B8000204604F06BFE0B49204604F067FE0A493C
:100B90000A4804F063FE40F2DC50BDE8384005F03E
:100BA000F3B800BF6C1800240BDD09085C8B090842
:100BB0003EDD0908638B09086D8B0908141C0024AD
:100BC0002DE9F041B74990B0B74804F047FEB74966
:100BD000B54804F043FEB6490DA804F04AFFB549F4
:100BE0000AA804F046FF0AA90DA804F0F7FF014681
:100BF00001A804F07EFF0AA8AF4D0024AF4EB04F0D
:100C000004F0ECFE0DA804F0E9FE31460AA804F059
:100C100030FF01340A2207A8214604F049FF07A942
:100C20000AA804F0DBFF394604F0E4FF8046022204
:100C300055F8041B0DA804F070FF0DA9404604F000
:100C4000CDFF014601A804F0A8FF0DA804F0C6FEE0
:100C500007A804F0C3FE0AA804F0C0FE082CD4D1F3
:100C600098490DA804F005FF974B0AA8196804F0ED
:100C700000FF0AA90DA804F0B1FF0146934804F053
:100C80000BFE0AA804F0AAFE0DA804F0A7FE9049E6
:100C90000DA804F0EEFE01A90DA804F09FFF014687
:100CA0008A4804F0F9FD8B4D0DA804F097FE2868E2
:100CB00038F030F88849854804F0F8FD874802F09C
:100CC00058FC01A9854802F09DFD844802F089FD89
:100CD000642005F059F8286838F01CF87F4802F0C5
:100CE00095FD04467D4904A802F0A6FE7C4977489C
:100CF00004F0B4FD0A222146744804F02CFE794920
:100D00000DA804F0B6FE04A90DA804F067FF014683
:100D10006E4804F0C1FD0DA804F060FE6149624810
:100D200004F09CFD7049604804F098FD21465E483F
:100D3000FFF70EFF694802F011FC4FF4FA7005F05E
:100D400023F8286837F0E6FF6849604804F0AEFDF4
:100D500057490DA804F08DFE65490AA804F089FEE4
:100D60000AA90DA804F03AFF014601A804F0B2FE5A
:100D70000AA804F033FE0DA804F030FE4F490AA87B
:100D800004F077FE0A22022107A804F091FE07A9C9
:100D90000AA804F023FF4A4904F02CFF554B0546EE
:100DA00002220DA8196804F0B8FE0DA9284604F027
:100DB00015FF014601A804F0F0FE0DA804F00EFE98
:100DC00007A804F00BFE0AA804F008FE3D490DA890
:100DD00004F04FFE3C4B0AA8196804F04AFE0AA929
:100DE0000DA804F0FBFE0146384804F055FD0AA8A2
:100DF00004F0F4FD0DA804F0F1FD35490DA804F050
:100E000038FE01A90DA804F0E9FE01462F4804F0C0
:100E100043FD0DA804F0E2FD34492C4804F046FDE2
:100E20002E4802F0A6FB01A92C4802F0EBFC2B484F
:100E300002F0D7FC642004F0A7FF264D286837F0A5
:100E400069FF264802F0E2FC06462B491F4804F0E1
:100E500005FD0A2231461D4804F07DFD21490DA8FB
:100E600004F007FE1D490AA802F0E6FD0AA90DA834
:100E700004F0B4FE0146154804F00EFD0AA804F083
:100E8000ADFD0DA804F0AAFD1C49074804F0E6FCDE
:100E90001B49054804F0E2FC31460348FFF758FEC1
:100EA00030E000BF0BDD09086C180024F08C090845
:100EB0000E8D09081F8D0908E4140024308D0908DF
:100EC00031900908378D09085C000024141C0024A7
:100ED000408D0908081600244D8D090824150024AA
:100EE0006B8D0908838D0908988D0908A28D090862
:100EF000C98D090800160024DA8D09083EDD0908AD
:100F0000F48D0908524802F029FB40F6B83004F08D
:100F10003BFFC82C4F4C1FD100234F494F48236043
:100F200004F0C4FC4FF4FA7004F02EFF4C4904A8FE
:100F300004F06DFE58B92368082B38DC04A804F0CF
:100F40004DFD01A804F04AFD10B0BDE8F08145490F
:100F5000424804F0ABFCEEE72368434901334348C1
:100F6000236004F07BFC4249404804F077FC216890
:100F70003E48FFF7EDFD3E49384804F06FFC0A2279
:100F80002168364804F0E7FC3A4801F0D8F8032815
:100F900003D1286837F0BEFE04E037492F4804F03B
:100FA00085FCF6E740F6B83004F0EEFEC3E72E49C4
:100FB0002E4804F053FC31492C4804F04FFC2D48D6
:100FC00001F046F8FFF7D8FC286837F0A3FE41F29D
:100FD000883004F0D9FEB1E70AA804F0FFFC0DA8A0
:100FE00004F0FCFC4CF0CAFEF9E70DA804F0F6FC96
:100FF00007A804F0F3FC0AA804F0F0FC01A804F030
:10100000EDFCEFE7F4E7F6E70AA804F0E7FC0DA82B
:10101000F2E7FCE7FBE70DA80BE00AA804F0DEFC12
:10102000F9E7F8E70DA804F0D9FC07A804F0D6FC0E
:101030000AA804F0D3FC04A804F0D0FCDEE7F4E72F
:10104000F6E7EAE7E7E7E6E7E7E7E4E7F3E7D5E728
:1010500024150024D0150024008E0908141C002437
:101060000C100A08178E09080BDD09086C180024FB
:101070005F8E090854160024718E0908AE8E090887
:101080002DE9F047374F0024374DDFF8FC80DFF8BB
:10109000FC90364E387904F08DFF6B68002814BF41
:1010A0001846581C45F8040F57F8040FC0B204F056
:1010B00081FF824668B949463046C8F8004004F0CE
:1010C000CDFBD8F800103046FFF742FD284B83F8DF
:1010D00000A0387804F06EFF08B100232B602B6865
:1010E0000C2B23DD234B3046DFF8A4A003EB840355
:1010F0002149D3ED007AFDEEE77A17EE903A4AF8EF
:10110000243004F0ABFB0A222146304604F021FCD7
:101110001A49304604F0A2FB5AF824103046FFF773
:1011200017FD2046FFF71CFD00232B600134082C1F
:10113000B0D1134C207804F03DFF80B901220C4B54
:1011400010490A481A7004F089FB207804F032FF35
:101150000A2201460548BDE8F04704F0FABBBDE8A5
:10116000F08700BF0400002400150024141C002494
:1011700050000024B0150024938B0908A58B0908A2
:1011800048000024A88B0908A01500247F8B0908BB
:10119000280000242B4B70B52B4E186837F0BAFD91
:1011A000FFF76EFF3278002A42D0FFF715F9274C7F
:1011B00004F0D8FD2368C01A254B1B68984208D953
:1011C000FFF7A2FAFFF738FB224B186004F0CAFDC4
:1011D0002060214D04F0C6FD2B68C01A1F4B9842B9
:1011E00025D91F4C1F49204804F060FB01212078BD
:1011F00004F09AFE1D491C4804F058FBFFF7E0FC80
:101200001B49194804F052FBFFF7C8F804F0AAFD87
:1012100018492860144804F049FB0021207804F0A4
:1012200083FE1549104804F041FB0123337070BD63
:10123000124B1868FFF766F911490B4804F036FBAA
:10124000B5E700BF0816002450000024AC150024A8
:101250004C00002400160024A4150024905F010017
:10126000740000244C8F0908141C0024668F0908A0
:101270008B8F0908A58F0908C08F0908A0150024C5
:10128000278F0908214810B50378BFF35B8FDB0770
:101290000DD43BF0BFF850B11D4837F037FD1B4867
:1012A0003BF0DAF81B4A1C4919483BF09BF81B4BF2
:1012B000174A1B4C1A6000234FF47A7219492046D2
:1012C000C4E90132C4E90433174B124A23603BF0EE
:1012D00089F8164A40F2BB1321461548126802F0FD
:1012E00019F90C4A134912483BF07CF8124B134889
:1012F000197800F0F4FA11491148BDE8104000F0E7
:10130000BDBB02483BF0B0FA4CF038FD9C14002401
:10131000A014002400000024138D070808160024E0
:101320000C16002469030408048A09085C000024E0
:101330002415002451030408040000248C15002403
:10134000D815002410B54FF47A704B4C04F01CFDF6
:101350000C2004F099FD47F23051206837F0EEFC84
:1013600018B14649464804F0A1FA4FF416514548D1
:1013700002F0ECFE4449434804F070FA4349414806
:1013800004F06CFA4FF47A7004F0FEFC4FF4E13193
:101390003B4802F0DBFE3E49394804F05FFA0A227E
:1013A0001E21374804F0D7FA3A49354804F07EFA4E
:1013B0003549344804F052FA3749324804F04EFABD
:1013C0003649304804F04AFA35492E4804F046FAC6
:1013D0000A221E212B4804F0BCFA3249294804F0A5
:1013E0003DFA01212748FFF7B3FB206837F092FC54
:1013F0002D49234804F05AFAFFF73CFA2B4B0A22F6
:10140000014618701E4804F0A6FA294B01211878ED
:1014100004F040FD274B0121187804F03BFD264BDA
:101420000021187804F036FD0121352004F032FD4A
:10143000206837F06FFC2149114804F023FAFFF7C8
:101440009BFA11490F4804F009FA1D490D4804F0B0
:1014500005FA4FF47A7004F097FCFFF7DDFA1949AA
:10146000074804F023FA0849064804F0F7F9206811
:10147000BDE8104037F04EBC08160024E18F090883
:10148000141C00246C1800240BDD0908C1DB0908BA
:101490000390090818900908339009083EDD0908EF
:1014A0000F9009083F900908449009080416002489
:1014B00054000024740000244800002457900908B8
:1014C0007190090880900908014800F07CBD00BFB8
:1014D0005416002410B5C36886B001228DF80F1091
:1014E0000DF10F01186803680092DC680DF1170315
:1014F000A0479DF8170006B010BDF8B5427A044623
:1015000003680E46CFB29B680D0A62B93946984708
:10151000236860F3070629469B682046984760F3D6
:101520000F26B0B2F8BD29469847236860F30F260E
:1015300039469B682046984760F30706F1E7C36881
:1015400013B5186803680092DC680B46A04702B028
:1015500010BD704770477047C36810B5044653B15B
:10156000186840B103685B6898470421E0683BF065
:10157000C7F90023E36010BD10B5044618213BF005
:10158000BFF9204610BD436873B599426D460446C5
:101590000E4685E8060004D1BDF8042003899A426E
:1015A0000FD0E36808219DF80420186836F02FFE5C
:1015B000E3683146186836F048FE0098AB886060F2
:1015C000238102B070BD73B5C568044625B90420F7
:1015D0003BF062F9E0600560E3681B6883B94FF097
:1015E000FF3674203BF058F9B4F91430B4F91020E8
:1015F0000546B4F91210009636F00EFFE3681D6040
:1016000002B070BD742128463BF07AF94CF0B6FB6D
:101610002DE9F0475920002404F08AFB06465A20A1
:10162000012704F085FB05465B20DFF8748004F099
:101630007FFB174B1E825D82164E174D5C60324653
:101640001C7229465F7298821846C3F80080DC60DD
:101650003AF0C8FE0C2004F06BFB82460B2004F02D
:1016600067FB81460D2004F063FB0C4B3246294694
:101670001C725F72DC60A3F810A0A3F8129098822D
:101680001846C3E90084BDE8F0473AF0ABBE00BF9E
:101690002416002400000024571504083C160024DA
:1016A000AC900908094B30B51A46094CD3F8945050
:1016B000A542FBD1036829B181680B604FF44073E8
:1016C000536130BDC1681B04F7E700BF00640258D6
:1016D0000003008038B5056806F078FD30217D24D0
:1016E00006F088FD284636F08CFA06F06FFD1821CA
:1016F00006F080FD013C14F0FF0436D0022004F017
:1017000045FB6B681A682B681A42F3D006F05EFD41
:10171000302106F06FFD00212846FFF7C3FF36F0A9
:1017200063FA06F053FD182106F064FD4FF4F070E3
:1017300004F02CFB06F04AFD302106F05BFD284644
:1017400036F05FFA462004F021FB6B681A682B68BC
:101750001A420CBF0124002406F038FD182106F0BF
:1017600049FD4FF4CD7004F011FB204638BD38B56B
:1017700011F0010504681BD006F028FD302106F0A9
:1017800039FD00212046FFF78DFF36F02DFA0A20A3
:1017900004F0FCFA01212046FFF784FF06F016FD55
:1017A000182106F027FD3720BDE8384004F0EEBAD6
:1017B00006F00CFD302106F01DFD29462046FFF7FE
:1017C00071FF36F011FA412004F0E0FA01212046C1
:1017D000FFF768FF06F0FAFC182106F00BFD052064
:1017E000E2E710B5046806F0F1FC302106F002FDD6
:1017F000204636F0F9F900212046FFF753FF032079
:1018000004F0C4FA204636F0FCF90A2004F0BEFACF
:1018100063681A6823681A4214BF0124002406F082
:10182000D5FC182106F0E6FC352004F0AFFA20467E
:1018300010BD2DE9F04105468846174608260124CB
:1018400018EA040F28464FEA440414BF012100217E
:10185000FFF78DFF013EE4B2F2D197B906F0B6FC76
:10186000302106F0C7FC286836F0CBF939462868E5
:10187000FFF718FF06F0AAFC1821BDE8F04106F0BA
:10188000B9BCBDE8F081F8B507460826002501245B
:101890003846FFF7A6FF00B125436400013EE4B2DD
:1018A000F6D12846F8BD70B50C46002255210646F3
:1018B000651E0734FFF7BDFF15F8011F00223046F3
:1018C000FFF7B7FFA542F7D170BD0022CC21FFF78B
:1018D000B0BF002383740382C0E90233704770B540
:1018E0000C4605460021204604F0D4FA204604F0B8
:1018F0001FFA06461C203AF0CFFF044600211C22A6
:1019000050F0DEF83146204638F05FFE00232C60B0
:1019100028466B60BDE87040FFF7DBBF1C21204606
:101920003AF0EEFF4CF02AFA2DE9F047867C0446A7
:101930008946154616B9FFF7CDFE20B90020A074E0
:101940002082BDE8F0876DB33246F02101260027E2
:101950002046BA463546FFF76CFF2046FFF741FFA9
:1019600080462046FFF73DFFB8F1010F1DD1012849
:101970003BD1402DE2D984F810A0BAF1000F01D17B
:101980000123A374237A002BD8D004F1080309F1B2
:10199000FF31103413F8012BA34201F8012FF9D1C4
:1019A0000120CEE72A46EC21D0E7804504EB07036F
:1019B00010D1227CAA4212D91A7A164214BF4FF0D3
:1019C00001084FF00008B8F1000F0ED1082D00D823
:1019D0006574AA461A7A22EA06021A720BE00CBF54
:1019E0004FF001084FF00008EDE7E2194FF0010851
:1019F000137A334313727600414620460135FFF7D0
:101A0000B6FE16F0FF06EDB202BF01370126FFB2A7
:101A1000072FA2D9ADE7000001440023084A10B502
:101A200088420AD010F8014B634003F00F0402EB28
:101A30001313145D1B7C6340F2E7184610BD00BF12
:101A4000E090090800220921C260C271027202708E
:101A5000C17001214270C261FF2201714171817127
:101A6000028370470023C160C371037203700923AE
:101A7000C3700123037143718371704710B50B4626
:101A80000446FFF7DFFF20461946FFF7EBFF10BDC6
:101A900043781BB10021807804F046BA7047437840
:101AA0001BB10121807804F03FBA70470B78282BD6
:101AB0000AD005D8102B07D0222B05D00020704764
:101AC0003B2B01D0422BF8E70120704710B50C46A4
:101AD00007212046FFF7A0FFE3791B1A584258411F
:101AE00010BDF8B5C37904460F461646934210D987
:101AF0000025C068FFF7EDFE01223946E068FFF7D8
:101B000013FF30B1EBB2B34205D00135EBB29E42C8
:101B1000F2D2002005E039462046FFF7D7FF002823
:101B2000F3D0F8BD38B50D460446C068FFF7D2FDC6
:101B300095B9E068FFF7C9FE0022B421E068FFF71D
:101B400078FEE068FFF74DFE0546E068FFF7C2FD4E
:101B5000B5FA85F0400938BD2946E068FFF7A3FED5
:101B6000EAE70A44914205D011F8013B002BF9D075
:101B7000002070470120704770B50446C0680E46CB
:101B80001546FFF7A7FDB8B13146E0686E1E08356F
:101B9000FFF789FE0022BE21E068FFF74AFEE068F9
:101BA000FFF771FE06F8010FAE42F8D1E068FFF7CB
:101BB00091FD431E5842584170BD38B50546144644
:101BC000FFF7DAFF68B1092221462846FFF7C9FF6F
:101BD00040B908212046FFF71FFF237A1B1A5842FD
:101BE000584138BD0020FCE738B50446C0680D46B2
:101BF000FFF770FD98B1E06895B9FFF766FE2278AF
:101C00004821E068FFF715FE23786BB9142004F033
:101C1000BBF8E068FFF75EFD431E5842584138BDEF
:101C20002946FFF740FEEAE72046FFF731FF142080
:101C300004F0AAF82046FFF732FFEAE770B5044641
:101C40000D46C0681646FFF745FD2946E068FFF7D8
:101C50002AFE00224E21E068FFF7EBFD0022B1785A
:101C6000E068FFF7E6FD0022F178E068FFF7E1FDAC
:101C70002B78102B04D000223179E068FFF7D9FDD2
:101C8000A3792BB129462046BDE87040FFF7ACBFD1
:101C9000E068BDE87040FFF71DBD1FB50B780C462E
:101CA000102B16D001AAFFF788FF60B122789DF8AB
:101CB00008303B2A01D11A060BD43F2B0BD004D895
:101CC0001F2B0AD0002004B010BD5F2B07D07F2B44
:101CD000F8D10C20F7E70A20F5E70920F3E70B20FD
:101CE000F1E7F7B5044603250026E0680127FFF772
:101CF000F0FDE6712672322004F046F801226946B2
:101D0000E068FFF711FE10B369462046FFF7DEFEDC
:101D10000028F3D0E379694620460133E371FFF7E9
:101D2000C5FE0028EAD0237A0133237223782BB929
:101D300069462046FFF7F6FE00B127706946204647
:101D4000FFF7ABFFE3788342D8D2E070D6E7E379C0
:101D50001BB9013D15F0FF05C7D103B0F0BD000070
:101D6000F0B51E460B7885B00446102B0F4615467D
:101D70001CD001AAFFF721FFF0B10C2D28BF0C25C4
:101D8000092D38BF0925A5F10A03DBB2022B96BF46
:101D90001A4A1F23D35C9DF808209A4206D001AA54
:101DA000394620468DF80830FFF748FF1EB9E37921
:101DB000E570012B02D8012005B0F0BD0025E068D8
:101DC000FFF787FDE279EBB29A42F4D9E3780C2B66
:101DD000F1D0012201A9E068FFF7A6FD60B101A9D9
:101DE0002046FFF773FE38B101A92046FFF755FFE3
:101DF000E378834238BFE0700135E3E700910908DA
:101E000010F5DC5FCABF07EE900ADFED037AFAEE49
:101E1000EC7A17EE900A70470000FEC20938C0B293
:101E200002289ABF024B33F8100040F2EE207047B0
:101E30000491090808B5C068FFF7D3FC431E584257
:101E4000584108BD70B54379044615467BB1037807
:101E50006BB940F2ED262046FFF7ECFFB0B903F076
:101E600081FF401BB04211D803F0A0FFF3E7084602
:101E7000FFF7D4FF05462046FFF70AFE284603F089
:101E800083FF2046BDE87040FFF709BE70BDF8B57E
:101E90000C460023054611461746C0E9003320468C
:101EA000FFF7FBFE0646B8B1E068FFF713FC3946C2
:101EB000E068FFF7F8FC22784421E068FFF7B9FCFE
:101EC00003F050FF0123024668602B7023791BB199
:101ED00031462046FFF7B6FF2846F8BD30B55578A5
:101EE000097815F0800F1C4C137808BF00243B299B
:101EF00018D192F90400002814DAD8070BD593788A
:101F0000D90724D49A0724D413F0040F134B144890
:101F100018BF184630BDD80000F4FC6040EAC52068
:101F20002043F7E7D800102940EAC52040EA040022
:101F3000F0D1D1790029EDD093790A4ACB1A02EA7F
:101F4000C000DB01203893FBF1F31844E8E70648B2
:101F5000E0E70648DEE700BF0000F8FF0082FFFF71
:101F600080E4FFFF80FF07000081FFFF8081FFFF0B
:101F7000F0B5054685B00E4617460024E3B29F42F1
:101F80000ED301AA314628460134FFF716FE002879
:101F9000F4D001AA31462846FFF7A0FF05B0F0BDF6
:101FA0000048FBE780E4FFFF08B5FFF7E1FFBDE86D
:101FB0000840FFF725BF70470B6803604B6843601C
:101FC0008B6883607047D0F8883023B11A6852F864
:101FD0008C0C18447047D0F894000028FAD003689D
:101FE00053F88C3CF5E700000239012907D8044B6F
:101FF00093F89020032A02D1052283F8902070479D
:10200000541600240C30704708B5FFF7FBFF00237F
:10201000036008BDC3680BB19B6818477047F8B5EB
:1020200005460E4600242A27D5F8980007FB040031
:1020300034F005FB2022314650F07EFB18B9012018
:1020400085F89C40F8BD0134402CEDD10020F9E723
:1020500038B5D0F88850044675B1284607F020FB03
:10206000284607F0D3FA00280CBF0623092384F87A
:10207000903094F8900038BDD0F8940003685B6D00
:1020800098470623F3E7D0F88C007047F8B505466B
:10209000D0F88C000E4608B14FF0CCF821204FF05C
:1020A000C1F80446C5F88C00B8B13346024606F1C3
:1020B00020071868083353F8041C1546BB4203C5B3
:1020C0002A46F6D11B7830462B7050F099FA20281A
:1020D00002D9002384F820300120F8BDF8B5402350
:1020E000054680F89C30D0F8980008B14FF0A2F86F
:1020F0004FF428603AF0E8FB0446064600F52867EE
:10210000304634F07BFA2A36B742F9D1D5F894003C
:102110004022C5F8984021460368D3F89830984784
:1021200040B2F8BD20463AF04CFC4BF027FED0F808
:10213000940008B50368D3F89030984708BD90F82C
:102140009000704708B5074801F006FE0028FAD055
:102150000549044803F0AAFB0449024803F0A6FB22
:10216000FEE700BF141C00244C910908899109085E
:1021700008B5054801F0F0FD0028FAD003490248EF
:1021800003F094FBFEE700BF141C0024F89109083B
:102190002DE9F0418CB00D4604460146684603F037
:1021A00068FC15B1FFF7CEFF4CE020463AF0BCFBCF
:1021B000044628B12F4D304F20463AF0B7F801E0E1
:1021C000FFF7D6FF064650B3294606A803F051FC98
:1021D000694606A803F002FD294603F00BFD804680
:1021E000314609A803F045FC09A9404603F0F6FC76
:1021F000014603A803F07DFC09A803F0EFFB06A845
:1022000003F0ECFB394603A803F001FD18B12046AA
:102210003AF0C0FB20E003A803F0E0FBCCE717484E
:1022200001F09AFD18B920463AF0B4FBC8E714490A
:10223000124803F03BFBF6E709A803F0CFFB06A822
:1022400003F0CCFB684603F0C9FB4BF097FDF6E7C3
:1022500003A803F0C3FBF5E70A4B012203A81A7099
:1022600003F0BCFB684603F0B9FB00200CB0BDE8EE
:10227000F08100BFC69309082A910908141C0024A4
:102280003C910908F816002410B50446006808B10E
:102290003AF097FB204610BD0B4B10B5044640F8B2
:1022A000643BFFF7F1FF04F14C00FFF7EDFF04F191
:1022B0003400FFF7E9FF04F11C00FFF7E5FF201DE4
:1022C000FFF7E2FF204610BD149109082DE9F04107
:1022D000002205461E4B0446114645F8043B28469D
:1022E00033F0AAF904F11C0600223046114633F0FF
:1022F000A3F904F1340700223846114633F09CF963
:1023000004F14C0800224046114633F095F90022B2
:1023100004F16400114633F08FF910E04046FFF7F6
:10232000B3FF3846FFF7B0FF3046FFF7ADFF284652
:10233000FFF7AAFF4BF022FDF3E7F5E7F7E70023ED
:10234000204684F87C30C4F88030BDE8F08100BFBE
:102350001491090810B50446FFF75CFE204610BD35
:10236000044BC36003460A6843F8042B0022426012
:102370005A6070471891090813B50446019121B9B4
:10238000FFF742FE204602B010BD01A9FFF7E8FFAB
:10239000F8E700002DE9F0430446D0F8940087B038
:1023A0000E4617461D46002869D00368544953F865
:1023B0008C3C00EB0309C35802A8D3F85C80FFF7FC
:1023C000DBFF02A94846C04702A8FFF7C3FF092D5B
:1023D00058D12046FFF782FE31462046FFF71FFE08
:1023E000002846D094F89C002A22D4F8983000FBAC
:1023F000023034F025F984F89D00D4F8943094F834
:102400007C101A6881F0010152F88C0C1A5818449B
:10241000D26C904794F87C3073B1D4F8940004F1F6
:102420003402211D036853F88C5C43592844D3F8C7
:10243000488004F11C03C047D4F89400D4F8A010DD
:102440000368D3F88C309847D4F89400002194F8AE
:102450009D30026800913146D2F894503A46A84720
:10246000284B0546984217D1D4F8940003685B6D59
:102470009847042384F8903094F89000C0B207B0D5
:10248000BDE8F083023DEDB2052D96BF1E4BFF2344
:102490005B5D84F89D30B0E794F87C300BB3D4F8E2
:1024A000943002A91A6852F88C0C1A581844526CCD
:1024B0009047D4F8943004F164011A6852F88C0CF7
:1024C0001A581844576902AAB847D4F8943004F14E
:1024D0004C011A6852F88C0C1A581844576902AA11
:1024E000B847002DC5D131462046FFF7CFFD002863
:1024F000BFD00323BEE702A8FFF72CFF4BF03EFC42
:10250000E91F040839F4FFFF2491090810B40C886E
:102510000368116820465DF8044B184707B5009220
:102520006A46ADF806100DF10601FFF7EFFF03B0A4
:102530005DF804FB38B50D4C32F055FE05462046DB
:10254000FFF7C4FE0A4B20460A4A236000230A49CB
:1025500084F89030C4E92233C4E9255341F6583356
:10256000C4F8A030BDE8384039F03CBF5416002410
:10257000509209080000002499220408006918B14B
:102580008068003018BF01207047000003692DE902
:10259000F041044686B00E46904613B903689B6B23
:1025A0009847256901AC2B689F68084B0093331D41
:1025B0000FCB84E80F00337D4246694628468DF8EC
:1025C0001430B84706B0BDE8F08100BF6498090830
:1025D000036970B504460D46164613B903689B6B34
:1025E00098472069324629460368BDE87040DB6899
:1025F000184770477047C06810B103685B68184798
:10260000704700207047C06810B103685B681847C6
:1026100070470020704710B5044610213AF070F959
:10262000204610BD08B5FFF7F6FF08BD10B50446FB
:1026300010213AF065F9204610BD08B5FFF7F6FF06
:1026400008BD006908B100F0D9B97047006908B148
:1026500000F026BA7047006908B100F04EB9704723
:10266000006908B100F02FB97047006908B100F0A7
:10267000C4B97047006908B100F04AB970470069F1
:1026800008B100F048B94FF0FF307047006908B159
:1026900000F06EB97047006908B100F0A3B94FF0BF
:1026A000FF307047036810B504469B689847A368DD
:1026B000013BA3602BB923682046DB68BDE81040CE
:1026C000184710BD38B504464FF4B0703AF0E4F83E
:1026D000054600F047FD10203AF0DEF801220346DF
:1026E000C5602561C0E90122124A02606069636128
:1026F00090B92368204625695B6B9847686038BDB0
:102700004BF074FA2B6828465B6898474BF068FCDE
:102710004BF0ACFA4BF032FB4368013B4360002BBB
:10272000E7D1FFF7BFFFE4E74FF4B07128463AF076
:10273000E7F8EFE77892090838B504464FF4AA7035
:102740003AF0AAF8054600F0CDF910203AF0A4F8C6
:1027500001220346C5602561C0E90122124A0260D8
:102760006069636190B92368204625695B6B98476F
:10277000686038BD4BF03AFA2B6828465B6898478A
:102780004BF02EFC4BF072FA4BF0F8FA4368013B29
:102790004360002BE7D1FFF785FFE4E74FF4AA7110
:1027A00028463AF0ADF8EFE75C9209080121D0F82D
:1027B00048013AF0D5BA0068704700002DE9F041B1
:1027C0000446C0B04FF001082E4FA3684BB32D4D07
:1027D00001236422FF21D4F848013AF0E2FAD4F848
:1027E0004C013AF029FBA068D8B1D4F81431B3F504
:1027F000807F0AD1D4F84C013AF03CFB03F0D6FAC2
:10280000BD42ECD0002DEADCDFE7D4F814216946A4
:102810000368C2F580725B699847061E07DABE42FC
:1028200006D0002384F8183140B0BDE8F08107D10C
:1028300003F0BCFAD4F84C013AF01CFB3546DFE754
:102840000025D4F81431B3F5807F10D0D4F80C31C2
:102850001DF8052023441A73D4F80C310133DBB280
:10286000C4F80C31D4F814310133C4F814310135F3
:10287000AE42E6D1D4F84C013AF0FCFA84F8188163
:10288000ADE700BF47F4FFFF0022C26070470C3085
:10289000704738B500250446112240F8045B2946EC
:1028A0004FF00EF9E582204638BD08B5034690F892
:1028B000180138B1586803681B6E98470128CCBFCF
:1028C0000020012008BD70B5054680680C461646FC
:1028D00090B10368D5F850111B6B9847A868214642
:1028E000324603681B6998470446A86800210368BC
:1028F000DB6A984724EAE47070BD07B502AB012299
:1029000003F8011D1946FFF7DEFF03B05DF804FB75
:10291000D0F81401704738B58368044653B1D0F835
:102920004C013AF089FAD4F8143133B9D4F84C0197
:102930003AF0A0FA4FF0FF3515E0D4F81431A3B106
:10294000D4F8103123441D7BD4F810310133DBB2AD
:10295000C4F81031D4F81431013BC4F81431D4F860
:102960004C013AF087FA284638BD4FF0FF35F6E7BC
:1029700070B5044680680D46164660B1D4F84C0127
:102980003AF05AFAD4F8143133B9D4F84C013AF089
:1029900071FA4FF0FF3070BD9E422946A8BF1E4617
:1029A000A819814218D0D4F8143193B1D4F8103159
:1029B00023441A7BD4F810310133DBB2C4F8103150
:1029C000D4F81431013BC4F81431134601F8013B2B
:1029D000E7E74FF0FF33F9E7D4F84C013AF04AFA51
:1029E0003046D8E7D0F8143123B1D0F8103118446C
:1029F000007B70474FF0FF307047704738B5044692
:102A0000D0F84C0108B13AF017FAA06840B194F838
:102A100019210368002A3AD05B6898470023A36015
:102A2000D4F84C0108B13AF025FAD4F8440150B179
:102A30003AF018FBD4F8440110B103685B6898477A
:102A40000023C4F84431D4F848514DB128463AF037
:102A50008DF91421284639F053FF0023C4F848317A
:102A6000D4F84C514DB128463AF01EFA242128469C
:102A700039F046FF0023C4F84C310023C4F80C3170
:102A800084F81831C4F81031C4F8143138BD1B6B08
:102A9000D4F850119847A06803689B689847BDE731
:102AA00010B50446FFF701FF012805D0D4F8140142
:102AB0000028D4BF0020012010BD10B5044600211D
:102AC000FFF7E2FE204610BD10B50446FFF7A2FA5C
:102AD000204610BD10B504460021FFF7D5FE204664
:102AE00010BD000038B50025144B04464FF4807229
:102AF00003602946C0E901550C304EF0E1FFC4F8EF
:102B00000C5184F8185104F58E70C4F8105184F8F3
:102B10001951C4F81451FFF7DDFF04F59670FFF763
:102B2000B8FE40F2DC53C4F844512046C4F8485182
:102B3000C4F84C51C4F8503138BD00BF889309081F
:102B400010B50446FFF766FA204610BD074B10B5D6
:102B500004460360FFF752FF04F59670FFF794FBFD
:102B600004F58E70FFF7ECFF204610BD889309082E
:102B700010B50446FFF7EAFF4FF4AA71204639F07A
:102B8000BFFE204610BD08B5FFF781FE006800308B
:102B900018BF012008BD000010B50446FFF7F3FF81
:102BA00028B940F202220649064838F03FFEE068A4
:102BB000FFF701FE03462046BDE81040184700BF5E
:102BC000679309087293090808B5FFF7E5FF08BD88
:102BD00010B4D0E9003409686210E4075DF8044BD2
:102BE00001EB020044BF8A58D3581847014604300D
:102BF00008B5FFF7EDFF08BD034A0346C26007C9E9
:102C000083E80700704700BFD092090810B586B06E
:102C100004460391684606A980E80C0001E90C000F
:102C2000204603A9FFF7E8FF204606B010BD37B5E0
:102C30006C46054684E80C0094E80C00FFF7E6FFBC
:102C4000284603B030BD00002DE9F0430B680E4666
:102C500004468BB0DB6A002130469847336804F5A0
:102C6000967130469B6C9847D4F848313BB9142094
:102C700039F012FE05463AF069F8C4F84851D4F824
:102C80004C313BB9242039F007FE05463AF0CCF828
:102C9000C4F84C51D4F84C013AF0CEF8D4F8449131
:102CA000B9F1000F43D1BC2039F0F6FD05460746C7
:102CB000314B05F1400847F8043B3846FFF7FDFE6D
:102CC000494640463AF012F905F1540948463AF0AF
:102CD000ABF82A4B4FF4805218212846009300236A
:102CE0003AF094F9264B214606A8C4F844510293C1
:102CF0000023039302AB0CCBFFF799FF06A92846EC
:102D00003AF0F8F910E048463AF0CEF840463AF08A
:102D10002CF93846FFF7D8FEBC21284639F0F0FDE3
:102D20004BF02CF8F2E7F4E706A8FFF7CDFED4F855
:102D30004C013AF09FF83368214606A85D6B114BB1
:102D400004930023059304AB0CCBFFF770FF06A997
:102D50003046A84706A8FFF7B7FE012384F81831CC
:102D60000BB0BDE8F0831421D7E72421D5E706A8EE
:102D7000FFF7AAFED4E7FAE7BC590A08DC92090873
:102D8000BD270408AD27040870B504460E46FFF7BA
:102D900035FEA3684BB9902039F07EFD054632F030
:102DA0006FFE0123A56084F81931A56815B90025C7
:102DB000284670BD60680368DB6F98470146284667
:102DC00032F0DEF805460028F1D1A06831460368EC
:102DD000DB689847094B984203D010B184F818512A
:102DE000E6E7A1682046FFF72FFF0125F6E79021CF
:102DF000284639F085FD4AF0C1FF00BF39F4FFFFD6
:102E0000F0B5124B8DB006460D4600930B1D1746CC
:102E100001AC0FCB84E80F002B7D694606A83A462B
:102E20008DF8143000F027FA06A93046FFF7ACFF02
:102E300004E006A8FFF728FA4AF0A0FF044606A817
:102E4000FFF722FA20460DB0F0BD00BF64980908D4
:102E500070B58CB004460D4616460021182268460F
:102E60004EF02EFE6846FFF714FD6A46294660685C
:102E7000ADF8166000F030FA694606A832F09FFB04
:102E800006A92046FFF780FF08E006A8FFF7FCF937
:102E90006846FFF7F9F94AF071FFF9E7044606A81A
:102EA000FFF7F2F96846FFF7EFF920460CB070BD66
:102EB0002DE9F04104460E46FFF7A0FDD4F8088046
:102EC000B8F1000F14D14FF4B76039F0E5FC00F20F
:102ED0002457012342463946054633F0BBF92B4BB4
:102EE00038462B6032F0CCFD0123A56084F81931FF
:102EF000A3686BB900252846BDE8F081284633F069
:102F0000F5F94FF4B761284639F0FAFC4AF036FF7C
:102F100004F58E752846FFF736FE10B12846FFF7F8
:102F200053FED4E901050368DB6F9847014605F2BB
:102F3000245032F025F805460028DBD1A068144F54
:102F40000368DFF854801B6BD4F850119847A068D1
:102F500031460368DB689847B84208DC404510DA20
:102F60000C4B984205D0002384F81831C3E70028A1
:102F7000F9D10125A1682046FFF766FE84F81851B3
:102F8000B9E7642002F000FFE1E7BAE7F4450A0878
:102F90003BF4FFFF39F4FFFF3AF4FFFFF0B5124BAB
:102FA0008DB006460D4600930B1D174601AC0FCBA6
:102FB00084E80F002B7D694606A83A468DF8143048
:102FC00000F059F906A93046FFF772FF04E006A8A1
:102FD000FFF75AF94AF0D2FE044606A8FFF754F963
:102FE00020460DB0F0BD00BF6498090870B58CB0E4
:102FF00004460D4616460021182268464EF060FD34
:103000006846FFF746FC6A4629466068ADF81660D8
:1030100000F062F9694606A832F0D1FA06A9204606
:10302000FFF746FF08E006A8FFF72EF96846FFF70E
:103030002BF94AF0A3FEF9E7044606A8FFF724F9A6
:103040006846FFF721F920460CB070BD08B5FFF7C0
:10305000CDFD08BD08B5FFF7F9FF08BDC0F8581150
:10306000FFF7C4BFF0B50A4B87B006460D46009384
:103070000B1D174601AC0FCB84E80F002B7D3A46A1
:10308000694630468DF81430FFF788FF07B0F0BD71
:1030900064980908CB68C3600BB15B681847704738
:1030A000054B10B504460360FFF7A8FC2046FFF768
:1030B0004DFD204610BD00BFA093090810B5044681
:1030C000FFF7EEFF4FF4B071204639F019FC2046AF
:1030D00010BD884238B5044606D00D46FEF79AFF6B
:1030E00020462946FFF7D6FF204638BD10B4D0E968
:1030F000003409686210E4075DF8044B01EB02003C
:1031000044BF8A58D35818470146043008B5FFF722
:10311000EDFF08BD034A0346C26007C983E8070004
:10312000704700BFB093090810B586B004460391FC
:10313000684606A980E80C0001E90C00204603A9B6
:10314000FFF7E8FF204606B010BD37B56C460546D0
:1031500084E80C0094E80C00FFF7E6FF284603B073
:1031600030BD000010B586B00446FFF7BBFC134B22
:10317000134A21462360002302A8C4F85431C4F83E
:10318000583184F85C31CDE900236B460CCBFFF756
:10319000DCFF02A904F58E70FFF79BFF07E002A891
:1031A000FFF7CEFC2046FFF7D1FC4AF0E7FD02A86E
:1031B000FFF7C6FC204606B010BD00BFA09309086B
:1031C000D531040808B5FFF79FFF08BD08B5FFF724
:1031D000F9FF08BD70B5A2B005463FF023FD0368B6
:1031E00006469B6898470446F0B901223146684676
:1031F0003BF078FC174922460BA83EF085FF694654
:103200000BA83EF0E3FB044658B91349A86832F016
:10321000F1FF044628B9D5F8581141B9D5F8541131
:1032200069B90BA83EF066FE204622B070BD95F845
:103230005C31002BF2D1A86832F00CFEEEE7A868F2
:1032400032F0CAFF0446ECE70BA83EF053FE4AF00A
:1032500095FD00BFBC930908C193090837B54D79A6
:103260000446CB798A79097A0091294602F0B0FAAE
:10327000204603B030BDF0B587B00C460546174672
:1032800001261122002101A84EF01AFC002120463F
:103290008DF8046002F0AEFA0378314620468DF8CE
:1032A000053002F0A7FA0378022120468DF8063097
:1032B00002F0A0FA0378032120468DF8073002F0CF
:1032C00099FA03783A4601A928468DF8083032F079
:1032D0005FF9284607B0F0BDF0B5002385B004467D
:1032E0000E4602AD02938DF80C301746036829464E
:1032F0005B6C9847236800953A461D683146012368
:103300002046A84705B0F0BD30B58DB00D46044647
:103310001822002168464EF0D3FB2B6828461B6814
:103320009847036869465B6B9847694606A832F080
:1033300046F906A92046FFF791FF08E006A8FEF728
:10334000A3FF6846FEF7A0FF4AF018FDF9E706A8BC
:10335000FEF79AFF6846FEF797FF20460DB030BD96
:10336000006903689B69184700690368DB681847B0
:10337000006903681B6A184700690368DB6A18471D
:103380000069003018BF01207047006D704701656B
:103390007047406D70474165704710B590F84830F0
:1033A000044633B9206903685B699847002808DA46
:1033B00010BD03681B6998470028F3D14FF0FF3018
:1033C000F6E794F83220A2F10803022BF0D8A36BA1
:1033D000002BC2BFE36B0133E3630A2AE8D1E36C3D
:1033E000013BE364002BE3D1092384F83230DFE7AB
:1033F00010B50446006903685B6A984794F8323058
:10340000083B022B07D8A36B002B04DD0028A2BFCA
:10341000E36B1B18E36310BD73B590F832300446BC
:10342000092B0ED10026206903681B69984740B11B
:10343000206903685B699847C5B20A2D1CD184F8DE
:10344000325094F832300A2B04D1E36C13B90923BB
:1034500084F8323094F83230092B22D02069036886
:103460001B69984794F832300A2B03D1E36C9842D9
:10347000A8BF184602B070BD0D2DD4D028464DF01F
:10348000F9FC0028CFD0E06C1022ADF804600021D8
:103490008DF80450050101A84FF0DCFC2844E064DD
:1034A000C1E70020E6E70000F0B5056987B0944663
:1034B0000E462B6801ACDF69074B00930B1D0FCB49
:1034C00084E80F00337D6246694628468DF8143043
:1034D000B84707B0F0BD00BF6498090800234FF05B
:1034E000FF32C0E90E23094A80F832301268436384
:1034F0000264074A80F848301268C3646423426457
:1035000047F23052C0E91423704700BF7C0000240A
:103510008000002438B504461D4600204FF47A731D
:10352000C4E901030B4B04F11800C4E90412236041
:1035300002F046F90123258604F15C0084F8583036
:1035400084F85930044902F094FA2046FFF7C6FF88
:1035500038BD00BF2894090817DC090810B50446D7
:10356000006903689B6A98472046BDE81040FFF752
:10357000B5BF012380F832307047000038B50446EB
:103580001546006902F06AF90449206902F066F9FB
:1035900029462069BDE8384002F088B9D5400A08BC
:1035A00038B504460D460069114602F057F91F4927
:1035B000206902F053F92946206902F04FF91C49AD
:1035C000206902F073F994F8593013B36369D3B1E9
:1035D0001849206902F042F9D4E9040102F03EF9E9
:1035E000238E502B0CD040F2BB12934208D01249CC
:1035F000206902F033F90A22218E206902F0A9F92C
:10360000206902F039F90D4B20460D491A68FFF781
:10361000B5FF94F8583023B10A4A20460A49FFF70B
:10362000ADFF0123002084F8323038BDA8E009083E
:10363000EE930908F893090850400A08780000241E
:10364000FF9309080A9409081094090838B504463C
:103650001546006902F002F90549206902F0FEF8FA
:10366000294620690A22BDE8384002F074B900BF3B
:10367000D5400A0810B50446006902F0FDF802239F
:1036800084F8323010BD70B590F8323004460D46E3
:103690001646012B01D8FFF7EDFF20693246294677
:1036A0000368BDE870405B68184770B590F8323029
:1036B00004460D46012B01D8FFF7DCFF206929469F
:1036C0000368BDE870401B68184710B504462069C0
:1036D00003681B69984720B1206903685B699847B4
:1036E000F5E710BD2DE9F04F984690F8323087B0DD
:1036F0000446083B8A469346109F022B04D8FFF7E6
:10370000E4FF2046FFF7EAFE94F83250012D54D82A
:1037100094F85830CBB1B4F830E0D4E904C1DCF807
:10372000003019BBD3F81C9001AE274B009304F175
:103730001C030FCB86E80F0094F82C3072466946C4
:1037400060468DF81430C84714E020690368DB6ACE
:1037500098470028DFD05A4651462046FFF720FF01
:10376000064660B1304607B0BDE8F08F1B6A72466E
:10377000604698470028EEDC4FF0FF36F2E7B8F1DC
:10378000000F04D0424611492046FFF7F7FE002FF4
:1037900016DD3A460E492046FFF758FF119B7BB1D4
:1037A00001252046FFF766FF002DDBD023683A464F
:1037B000119920465B689847D4E76FF00106D1E77E
:1037C000002DCFD1EDE700BF64980908C893090820
:1037D000D593090890F83230012B01D8FFF74ABF82
:1037E0007047FFF7F7BF000007B500234FF0FF3227
:1037F000CDE90023024AFFF775FF03B05DF804FB33
:103800001B9409080968FFF7EFBF00002DE9F84F86
:1038100090F832300446012B4FD90025DFF8D080D4
:103820000327002346464FF00A094FF0040A63635A
:10383000022384F8323002F095FA83460A2D42D0F2
:1038400002F090FA236DA0EB0B00984241D223685E
:1038500020461B69984730B32046FFF79EFD431C66
:103860000546EDD094F83230022B05D0032B0FD053
:1038700002F078FA8346E1E733782A2B01D08342BD
:1038800017D17278731C0AB984F832701E46EFE7BC
:10389000A0F13002092A97BF636B84F832A009FBBC
:1038A00003236363E4E7606D02F06EFAC6E70A2D56
:1038B00006D16FF00300BDE8F88F6FF00100FAE762
:1038C0006FF00200F7E7636BC72B02DC652B18BFB4
:1038D000002594F83230042BE9D1606BC72801DC55
:1038E00065289ED10A2D18BF6FF00200E3E700BFE4
:1038F000E493090810B50446FFF74FFDC0B294F8F1
:103900003230A3F10802022A32D9052B31D0072B1D
:103910003BD0042B56D1226C137883420BD1531C1D
:103920002364537823B90522C4E90E3384F8322086
:103930000A281DD138E0636C197881420BD15A1CDA
:1039400062645B78002BF3D1012384F848300623AE
:1039500084F83230ECE71D4909688A42F7D11C4AE5
:1039600012689342F3D10D28F1D1072384F8323045
:1039700010BDA0F130010929E9D8A26B0A2303FB8D
:1039800002139A42D4DAA363D2E70A28F0D194F85A
:1039900048309BB1092384F832300023E36494F863
:1039A0003230083B022BE3D9042384F83230074B32
:1039B0001B682364064B1B686364D9E7082384F8FB
:1039C0003230ECE70A28D3D1E9E700BF7C000024BD
:1039D0008000002438B5044602F0C4F9054694F886
:1039E0003230083B022B12D902F0BCF9236D401B88
:1039F00098420CD2236820461B69984718B120468C
:103A0000FFF778FFE8E7606D02F0BEF9E7E794F8AA
:103A10003230083B022B94BF00206FF0020038BD0B
:103A200010B590F832300446083B022B01D9FFF75D
:103A3000D1FFA06B10BD00007FB5044608460E46BE
:103A4000FFF7EEFF05461A4901A802F012F8002D13
:103A500004DD294601A801F0E0FF0BE0F36BAB4267
:103A60000FD0304601F09AFF431C0AD0C1B201A822
:103A700002F0A9F801460028F0D1204601F0F9FF34
:103A800010E0002D04DD039B9D4201D00021F4E7EE
:103A900001A9204601F097FF04E001A801F09EFF74
:103AA0004AF06CF901A801F099FF204604B070BDFE
:103AB00017DC090838B590F832300546083B022B70
:103AC00001D9002038BDFFF7ABFF0130F9D0EC6B16
:103AD0002846FFF7A5FF8442B4BF00200120F1E78C
:103AE000FFF7E8BFFFF7E6BF704710B504460421B3
:103AF00038F006FF204610BD0348044B044A054930
:103B0000036038F06FBC00BFFC160024B8940908AD
:103B100000000024E93A0408064B00221A60012242
:103B2000054B1A600222054B1A600322044B1A60EF
:103B3000704700BF081700240C170024001700244A
:103B40000417002430B5A1F11004002500F00F0285
:103B5000CD7302390009D3B2092ACCBF37333033D1
:103B60000B748C42F2D130BD6720704708B5084A0B
:103B70000121084B57201A6002F08CF901215720CF
:103B800002F0D2F9044B43F2D2021A6008BD00BF22
:103B900000400058101700240040005210B50446A1
:103BA0003FF0BAF82146FFF7CDFF3FF0BBF804F134
:103BB0001001FFF7C7FF3FF0BBF804F12001FFF74A
:103BC000C1FF302010BD000008B54DF6597200212C
:103BD000074843F027FABFF34F8F0649064BCA68E0
:103BE00002F4E0621343CB60BFF34F8F00BFFDE7E9
:103BF0001017002400ED00E00400FA0503680868CF
:103C0000184708B5011DFFF7F9FF08BD044A034630
:103C1000C260002203C99A6083E80300704700BFB6
:103C2000C094090813B50446CDE900126946FFF7B0
:103C3000EDFF204602B010BD10B50446FFF7F2FFBD
:103C4000204610BD08B5FFF7DCFF08BD08B5FFF73B
:103C5000F9FF08BD70B590F8343105461446F3B944
:103C60000368DB69984704F4706304F00F02B3F54E
:103C7000407F04F0F0030CBF07210821302B0CBF5C
:103C800002230123012A08D0901E42424241A86922
:103C9000BDE87040006834F0E7BC0222F7E770BD71
:103CA00010B590F8343104462BB9A369186834F084
:103CB0001FFD0028F9D010BD38B590F834510446E6
:103CC000A5B983695BB1186848B10368DB68984798
:103CD000A36904211D60A06938F012FEA5610023CC
:103CE000C4F82831C4F82C31C4F8303138BD13B5CC
:103CF00090F8343104466BBBA369186834F0CCFCEF
:103D000040B337F08BFEA36901220DF1070118685B
:103D100003685B699847D4F83031B3F5807F16D0DB
:103D2000D4F83031B3F5807F11D0D4F828319DF824
:103D30000720234483F82820D4F828310133DBB24C
:103D4000C4F82831D4F830310133C4F8303137F0B9
:103D50007BFED1E702B010BD08B590F834313BB11D
:103D6000012002F011F80648BDE8084001F05BBAF6
:103D700082691AB11368003318BF0123184608BDC1
:103D8000E022002470B504460D4601F04CFA30B133
:103D90002368294620461B6CBDE87040184770BD5B
:103DA000A0F5A070EEE7000013B590F8343104469A
:103DB0008DF807102BB1C9B20B48FFF7E3FF02B033
:103DC00010BDA369186834F093FC0028F9D0A369EA
:103DD00001220DF10701186803681B69984701303B
:103DE00018BF0120EBE700BFE02200242DE9F041DD
:103DF00007468846164601F016FA70B10024A6421E
:103E00000CD9351B08EB04013846402D28BF40254E
:103E10002A462C4400F05CFFF1E704462046BDE84A
:103E2000F081A0F5A070E1E770B590F83431054657
:103E30000E4614462BB10F48FFF7D8FF0446204624
:103E400070BDAB69186834F053FC0028F9D0AB6939
:103E500001211868D0F8883088301B6B9847AB690F
:103E600022463146186803681B699847013008BF2D
:103E70000024E4E7E022002430B50446C3B001F09A
:103E8000BFF90546D4F85832C3F58073984203DD74
:103E9000D4F85852C5F580752A4601AB02A92046D0
:103EA00001F00CF8019902AB00226D1A1D44D4F800
:103EB0005832B3F5807F19D08A4217D0D4F85832DF
:103EC000B3F5807F10D0D4F85032A85C234483F837
:103ED0005001D4F850320133DBB2C4F85032D4F878
:103EE00058320133C4F858320132E0E743B030BDF4
:103EF00038B5044600F0D2FB2046FFF7BDFFD4F8EA
:103F00005852204600F0D2FB284638BDA0F5A070DC
:103F1000EEE7000010B590F8343104462BB10648A6
:103F2000FFF7E6FF0446204610BD37F077FDD4F8D2
:103F3000304137F089FDF6E7E022002438B5044629
:103F400000F0ACFB2046FFF797FFD4F858324BB196
:103F5000D4F85432234493F85051204600F0A6FB85
:103F6000284638BD4FF0FF35F7E7A0F5A070E5E72C
:103F700010B590F8343104462BB10B48FFF7DEFF43
:103F80000446204610BD37F049FDD4F830313BB12E
:103F9000D4F82C01044494F8284037F055FDF0E79C
:103FA0004FF0FF34F9E700BFE022002438B50446A3
:103FB00000F074FB2046FFF75FFFD4F85832A3B13E
:103FC000D4F85432234493F85051D4F85432013386
:103FD000DBB2C4F85432D4F85832013BC4F858323A
:103FE000204600F063FB284638BD4FF0FF35F7E769
:103FF000A0F5A070DAE7000010B590F8343104465F
:104000002BB11148FFF7D2FF0446204610BD37F010
:1040100005FDD4F830319BB1D4F82C31234493F80A
:104020002800D4F82C310133DBB2C4F82C31D4F899
:104030003031013BC4F83031044637F005FDE4E788
:104040004FF0FF34F9E700BFE02200242DE9F843E8
:1040500000251F464FF47A73044689469046294648
:104060004FF48072C561089EC0E90153184B03608C
:104070002023C0E9053528304DF022FDC4F8285131
:1040800084F834515FFA89F0C4F82C51C4F83051E7
:1040900001F04EFE20845FFA88F001F049FEAF4245
:1040A00060840CDBF8B201F043FEA084002E0ADB32
:1040B000F0B201F03DFEE0842046BDE8F8834FF603
:1040C000FF73A384F2E74FF6FF73E384F4E700BFC6
:1040D000E094090810B4D0E9003409686210E407DC
:1040E0005DF8044B01EB020044BF8A58D3581847CF
:1040F0000146043008B5FFF7EDFF08BD034A03464B
:10410000C26007C983E80700704700BFCC94090864
:1041100010B586B004460391684606A980E80C00F5
:1041200001E90C00204603A9FFF7E8FF204606B08E
:1041300010BD37B56C46054684E80C0094E80C00C9
:10414000FFF7E6FF284603B030BD000070B590F8D9
:10415000343186B004460E46002B3BD1856925B923
:10416000042038F099FBA0610560A369186850BB72
:104170008C2038F091FB3346B4F922200546B4F97F
:10418000201034F09DFDA3691D60B4F92420531C58
:1041900006D0A0690321B4F92630006834F0A0FDF0
:1041A000A3691D68B5B1114B0026214602A80093F2
:1041B0006B4601960CCBFFF7BCFF324602A928469E
:1041C00034F004FB03E0314634F03BFADDE702A8AB
:1041D000FEF77AFC06B070BD8C21284638F090FBC3
:1041E00049F0CCFD02A8FEF76FFCF9E7EF3C0408AC
:1041F00008B5FFF77DFF08BD08B5FFF7F9FF08BD5B
:1042000037B54FF47A731C4C00254FF4807204F1DB
:1042100028002946E561C4E90153184B2360202397
:10422000C4E905354DF04CFC0121C4F828512A465B
:10423000C4F82C5184F83411C4F830514FF0FF34D5
:104240000F4823460094FFF701FF234600941322F2
:1042500012210C48FFF7FAFE234600941122102188
:104260000948FFF7F3FE23460F220E21009407486A
:10427000FFF7ECFE03B030BD141C0024E0940908E5
:10428000341700246C180024A4190024DC1A00241C
:10429000002070477047704710B5D0F88C452CB19E
:1042A00023682046DB6A9847A468F8E710BD38B554
:1042B0000D46D0F88C4534B1236820462946DB688A
:1042C0009847A468F7E738BD004870479C950908EF
:1042D000054B10B50446036035F095FF204636F0D7
:1042E000A3F8204610BD00BF1C95090810B5044670
:1042F000FFF7EEFF4FF4B261204638F001FB204695
:1043000010BDF7B5002305460E46D0F88C45A4B184
:10431000236831460DF1030220461F6901ABB847FF
:104320009DF803100346042905D0019A284635F06C
:1043300079FA03B0F0BDA468E9E7019A9DF803108B
:10434000F4E770B505460E4622B10021BDE8704085
:1043500035F074B8D0F88C455CB123680022314642
:1043600020465B69984710B101212846EEE7A46812
:10437000F2E72146F9E770B50E460546D0F88C45C0
:1043800000213CB12368314620469B699847A468C8
:104390000146F6E72846BDE8704035F043B9F8B568
:1043A00005460E461746D0F88C453CB1236820469A
:1043B0003A463146DB699847A468F6E7284601216A
:1043C000BDE8F84035F08CB970B5002186B00446E0
:1043D00035F073FB00234FF48975A188EF26ADF803
:1043E00006302389ADF8045002258DF810301B0AE1
:1043F000E2888DF8113040F201238DF80750ADF8B6
:10440000123040F203138DF809500125ADF8143035
:1044100004F10A038DF8086005AE8DF80A501C46B9
:104420008DF80C1001AD090A8DF80E20120A8DF8D6
:104430000B008DF80D108DF80F202A46083303CAA3
:10444000B24243F8080C43F8041C1546F5D1128813
:1044500020461A8006B070BDF8B5002406460D4609
:10446000274630464EF0CCF8A04207D9335D05F818
:10447000143005EB440301345F70F2E7400000F0B4
:10448000FE00F8BD38B50446D0F88C5535B12B6820
:1044900028465B6A984710B9AD68F7E7284640F2AE
:1044A000023304F24A51A4F84835FFF7D5FF94F8D7
:1044B0004835184484F8480504F5A96038BD000063
:1044C00040F2023300F20A5110B50446A0F8083554
:1044D0000548FFF7C1FF94F80835184484F808052B
:1044E00004F5A16010BD00BF0C95090840F202332D
:1044F00010B50446A0F8C83400F2CA40FFF74EFBDE
:1045000094F8C834184484F8C80404F5996010BDC0
:104510002DE9FF4100231D4A044600F54E788DF831
:104520000A30092590F888350192FA228DF8083072
:1045300001238DF80C208DF80930C0238DF80B3045
:1045400001AB03CBC4F83803C8F8041088F808207E
:10455000D4F88C658EB13368002130469B6898474B
:10456000478805F54E7300F10901093FE0183A4606
:104570003D444DF0A7F9B668ECE784F83A5340465D
:104580002D1284F83B5304B0BDE8F0810902FFFF0F
:1045900073B504460D46164646F0BEF84FF48073D8
:1045A00001462A4620460093334635F0F9FE024B79
:1045B0002046236002B070BD1C95090810B5D0F8E4
:1045C0008C350446A3B9C0F88C1594F88835084694
:1045D0004A790B7194F88835134484F888350B6850
:1045E0009B6A9847238918442081012010BD1346F7
:1045F0009A68002AFBD19960E7E71FB5044635F0B9
:1046000057FA0146684634F073FC4021684634F09E
:10461000E1FCD4F88C4534B12368694620461B6A16
:104620009847A468F7E7684634F069FC04B010BD09
:10463000684634F064FC49F0A1FB10B50446FFF76E
:10464000DCFF2046BDE8104035F019BA0F4808B528
:104650000378BFF35B8FDB0711D437F0DBFE70B15B
:1046600040F2662242F241310948FFF791FF0748C4
:1046700037F0F2FE074A0849054837F0B3FE044810
:1046800008BD024838F0F0F849F078FB4C1D0024D2
:10469000501D002400000024D142040810B5FFF78B
:1046A000D5FF0368BDE810405B6F184710B5FFF7F2
:1046B000CDFF0368BDE810409B6F184710B5FFF7AA
:1046C000C5FF0368BDE81040DB6F184734F096BDA6
:1046D00034F0AABD34F082BD704770477047436A1A
:1046E00093F878007047D0F8240170470120704794
:1046F00000487047089709082DE9F04F97B0044625
:104700000F464B22002103A84DF0DAF9D4F82431EA
:104710002679002B637B06F1010594F80EA014BFE7
:1047200005200020EDB294F80C900193002F40F08A
:10473000978040F2092301218DF8250042F20540BF
:10474000ADF80C304FF481734FF0240C4FF0090E8C
:10475000ADF81030802304274B228DF8133032231C
:104760008DF821104FF010088DF8143008238DF8C3
:1047700024104FF0030B8DF815300B23ADF82600F5
:1047800005208DF8163040F202238DF82A101D34D2
:10479000ADF8183002238DF82D108DF82F1006215A
:1047A0008DF80E208DF817608DF81A308DF81DE009
:1047B0008DF81F608DF822308DF823308DF82B0096
:1047C0008DF82CC08DF831C08DF832308DF8331053
:1047D0008DF834008DF835C08DF81E708DF8298065
:1047E0008DF82EB08DF830708DF8361007218DF8C9
:1047F000376044F203068DF839108DF8491044F201
:1048000002018DF83850ADF84C1040F207518DF888
:10481000425040F60225ADF850109DF804108DF876
:10482000533040238DF83A008DF84A0020468DF829
:10483000521003A98DF83BA0ADF83C608DF83F8085
:104840008DF840E08DF84170ADF844508DF84B90F4
:104850008DF854304DF036F8204617B0BDE8F08F93
:104860000020FAE738B50B4B0546044645F8D03B27
:10487000FFF7ECFE35F0C7FC284634F045FC04F1A8
:104880007C0034F041FC04F1700034F03DFC204623
:1048900038BD00BFC896090810B50446FFF7E2FF0F
:1048A0004FF49471204638F02BF8204610BDFFF7E6
:1048B00005BF0000034B10B50446036034F0E0FA76
:1048C000204610BDE495090810B50446FFF7F2FF35
:1048D0002821204638F014F8204610BD034B10B5AF
:1048E0000446036034F0CCFA204610BDB4950908A4
:1048F00010B50446FFF7F2FF3421204638F000F8E7
:10490000204610BD034B10B50446036034F0B8FADE
:10491000204610BDCC95090810B50446FFF7F2FFFC
:104920003821204637F0ECFF204610BD38B51C4B2F
:104930000D46044640221968C0F80F1099889B79EB
:10494000A0F8131002214375284634F039FB4022A9
:1049500020730221284634F038FB40226073032183
:10496000284634F02DFBA073284634F0C9FA20B94C
:10497000AF220C490C4836F059FF002304F18502A0
:10498000C4E9322304F1D90284F8783084F8843001
:1049900084F8D830C4F81C21C4F8203138BD00BFD9
:1049A00000960908A1960908AC9609082DE9F3417B
:1049B00004460E461546FFF781FEF28823799A4297
:1049C00037D1002D35D17778012F2ED1F378202BD8
:1049D00027D13289072A24D104F10F0804F11605E2
:1049E000404629464CF03CFFD0B1D4F81630C4F80C
:1049F0000F30638B207CE17BA4F8133001EB0021A6
:104A0000E57C607C237F01EB00410095A07C25685C
:104A1000637501EB0061237D2046627D6D6BA847C5
:104A20003D46F378212B08BF0125284602B0BDE89A
:104A3000F0810025F9E710B50446FFF73FFEFFF7C8
:104A400005FE217B35F07CFA04F1850304F17C003E
:104A5000C4F8C8300023C4F8CC3084F8843034F073
:104A600008FB94F884302BB923682046DB6BBDE843
:104A70001040184710BD000070B50446FFF71EFE39
:104A8000D4F820512DB140F2DD120F490F4836F015
:104A9000CDFE04F1D903C4F81C31FFF7D7FD617BCB
:104AA00035F0ACF984F8D850C4F8200104F1D000F6
:104AB00034F0DFFA94F8D8302BB9236820469B6B8A
:104AC000BDE87040184770BDA19609080C9609080A
:104AD00002232DE9F041437100230446054683601B
:104AE0009046144B04F17C0645F8703B284634F0A0
:104AF000B3FA304634F0B0FA04F1D007384634F057
:104B0000ABFAC4F82481FFF7A1FD2146FFF756FD5B
:104B10000CE0384634F0F8FA304634F0F5FA28461E
:104B200034F0F2FA49F02AF9F6E7F8E72046BDE852
:104B3000F08100BFC896090870B504460D46FFF71E
:104B4000BDFD84F87850002D3ED194F8843033B107
:104B5000FFF77CFD217B34F0CBFF84F8845004F117
:104B6000850304F17C0600253046C4F8C830C4F83B
:104B7000CC5034F07EFA304634F074FA28B94FF451
:104B8000A2721449144836F051FE94F8D83033B16B
:104B9000FFF75CFD217B34F0ABFF84F8D85004F1C3
:104BA000D90304F1D005C4F81C3100232846C4F809
:104BB000203134F05EFA284634F054FA20B94FF42C
:104BC000A77204490548DEE704F17000BDE87040B3
:104BD00034F04FBAA19609081A9609082B960908CD
:104BE00010B50446FFF76AFD00212046BDE81040DD
:104BF000FFF7A2BF38B50D460446FFF75FFD042D51
:104C000005D020460021BDE83840FFF795BF38BDEC
:104C1000F8B5164604460D461F46FFF74FFD042320
:104C2000EA88337023799A4225D16978012922D103
:104C3000EA78212A08D0222A0BD0202A4FF000003F
:104C40001BD13070163401E00F34317007203C6006
:104C5000F8BDAB88204613F0010308BF1946FFF7E3
:104C60006BFFAB8803F00103E366AB8803F002033C
:104C7000A366022333700020EAE703233370E7E7DB
:104C800010B58AB00446FFF709FD684634F0E8F82D
:104C90000D4B694604F170000093099434F001FA59
:104CA0002046FFF703FD094B002168461A6834F0DF
:104CB0009DF86846FFF7FEFD0AB010BD6846FFF795
:104CC000F9FD49F05BF800BFE4950908089609086A
:104CD00070B58EB004460E461546FFF7DFFC01A8FE
:104CE00034F0BEF8114B01A904F17C0001930023BC
:104CF0000C958DF83430CDE90A4634F0D2F92046CF
:104D0000FFF7D4FC0A4B002101A81A6834F06EF8B2
:104D100004E001A8FFF7E2FD49F030F89DF83440C7
:104D200001A8FFF7DBFD20460EB070BDB495090861
:104D30000896090810B50446FFF7C0FC94F88430C3
:104D40007BB9D4F8CC3063B1FFF780FCD4F8CC3019
:104D500004F18502217B35F091F810B1012384F82C
:104D6000843010BD2DE9F8431E460446894690461E
:104D70009DF82070FFF792FC0023336094F87830A0
:104D8000E3B194F88430CBB9D4F8CC50C5F14005E8
:104D9000454528BF4546B8F1000F05D02A4649468B
:104DA000D4F8C8004CF08EFDD4F8CC302B44C4F8B5
:104DB000CC30356017B12046FFF7BCFF2046BDE878
:104DC000F843FFF773BCF0B50446406A85B001268E
:104DD00090F878502DB984F830503546284605B003
:104DE000F0BD04AB0027D4E90A1243F8047D009615
:104DF000FFF7B8FF0399E36AA26A5B1A0A44E36209
:104E0000A26213B984F83060E8E7606A3D46FFF7B4
:104E100091FFE3E72DE9F0431C4691B00546894632
:104E20009046FFF73BFC002C4FF0000602A806BF9F
:104E300001AC01270027266034F012F8134B02A9B9
:104E400005F1D00002938DF83C708DF83D60CDE9FE
:104E50000B59CDE90D8434F024F92846FFF726FCE0
:104E60000B4B314602A81A6833F0C0FF04E002A8D9
:104E7000FFF748FD48F082FF9DF83D4002A8FFF78C
:104E800041FD204611B0BDE8F08300BFCC95090874
:104E90000896090810B5D0F8203104466BB990F88F
:104EA000D83053B9FFF7D2FB402304F1D902617B1C
:104EB00034F046FF012384F8D83010BD70B50446A5
:104EC0001E4600230846336094F87830EBB194F81E
:104ED000D830D3B9D4F82051D4F81C11954228BF4A
:104EE00015462A464CF0EEFC3560D4F81C31D4F857
:104EF00020212B44551BC4F81C31C4F8205125B97E
:104F00002046BDE87040FFF7C5BF70BD37B5044609
:104F1000406A90F878502DB984F83550012528461C
:104F200003B030BD02AB002243F8042DD4E90A12CD
:104F3000FFF7C4FF0199A26A0A44A262226B1368B8
:104F40000B4413600199E36A5B1A94F83410E3622E
:104F500009B9126802B91BB9012384F83530DEE7BC
:104F6000606A0025FFF796FFD9E710B50446FDF704
:104F7000A4FD204610BD10B4D0E9003409686210C9
:104F8000E4075DF8044B01EB020044BF8A58D35894
:104F900018470146043008B5FFF7EDFF08BD0000D3
:104FA000034A0346C26007C983E80700704700BF91
:104FB000F495090810B586B004460391684606A921
:104FC00080E80C0001E90C00204603A9FFF7E8FF88
:104FD000204606B010BD37B56C46054684E80C0087
:104FE00094E80C00FFF7E6FF284603B030BD000050
:104FF000F0B58BB00546FFF761FB06ACFFF726FB6B
:10500000AF7B064600212046FFF7AFFF0094032345
:1050100040223946304635F059F92046FDF754FD17
:10502000FFF714FB214B06462F7B029300232946F2
:105030002046039302AB0CCBFFF7CDFF0094022375
:1050400040223946304635F041F92046FDF73CFD17
:10505000FFF7FCFA164B06466F7B049300232946A4
:105060002046059304AB0CCBFFF7B5FF0094022359
:1050700040223946304635F029F906E02046FDF752
:1050800023FD48F07BFEF9E7F8E72046FDF71CFD1D
:10509000FFF7DCFA4023D5F81C21697B34F050FE81
:1050A000012085F8D8000BB0F0BD00BF374A0408D6
:1050B000794A040808B5FFF76CFF08BD08B5FFF78B
:1050C000F9FF08BD6FF01500704700290CBF6FF0A5
:1050D000180000207047012070476FF015007047DE
:1050E0006FF0150070471120704770477047704788
:1050F00003689B6C1847A0F5A070F9E770477047EC
:105100007047704710B50446012000F03DFE94F84A
:10511000780010BDA0F5A070F4E7000038B54FF09E
:10512000FF320123FF210B4837F03BFE0A4D00F010
:1051300019FE044695F878301BB1012000F024FEDA
:10514000F8E700F00FFE001BC728F6D9BDE838408D
:10515000FEF73ABD98250024E022002407B502ABF3
:10516000012243F8041D1946FFF7B2FD18B101985A
:1051700003B05DF804FB4FF0FF30F9E7A0F5947041
:10518000FFF7ECBF07B5002302A9012201F8013D9A
:10519000FFF740FE20B19DF8070003B05DF804FB67
:1051A0004FF0FF30F9E7A0F59470FFF7EBBF2DE962
:1051B000F8430446884617461E46089DFFF77EFAC8
:1051C000D4F87092B9F1000F04D02B46324639461C
:1051D0004046C847C4F86082C4F86472C4F8686284
:1051E000C4F86C52BDE8F883B0F5966F03D1012185
:1051F000014837F0B5BD7047982500240068704716
:1052000038B50546FFF74AFA95F8D8304BB9D5F8C6
:105210002041402C28BF40242846FFF747FA20466B
:1052200038BD0024F8E790F878007047114B03F17F
:10523000780270B503600446C0F8282100F51D7699
:1052400003F1D80200F52D75E833C0F82C21C0F821
:105250004031AE4204D0103D2846FDF735FCF8E75A
:1052600004F5947035F06CFF2046FFF7FBFA2046FA
:1052700070BD00BF48970908A0F59470FFF7D6BF2E
:10528000A0F59670FFF7D2BF10B50446FFF7CEFF2A
:105290004FF42E71204637F033FB204610BDA0F5A9
:1052A0009670FFF7F1BFA0F59470FFF7EDBF000017
:1052B0002DE9F74304461E468846154645F02CFA6C
:1052C000BDF82C3004F59477014601932A46BDF8C9
:1052D0002830204600933346FFF7FAFB002138467A
:1052E00035F004FF4FF47A73002504F51D7904F5B9
:1052F000A870C4F848312946204B4E46C4F84451A2
:1053000003F178022360C4F8282103F1D802E833BE
:10531000C4F82C214FF48072C4F840314CF0D0FB1B
:10532000C4F85052C4F85452C4F8585204F52D75BC
:1053300030461036FDF7C1FBB542F9D10023C4F861
:10534000B432C4F87032B8F1000F13D02046FFF722
:1053500097FC0FE04D4504D0103D2846FDF7B4FB07
:10536000F8E7384635F0ECFE2046FFF77BFA48F0C8
:1053700005FDF9E7204603B0BDE8F083489709082A
:10538000884238B5044606D00D46FCF743FE204659
:105390002946FDF77FFE204638BD08B5FCF732FEF2
:1053A0000068003018BF012008BD000010B5044699
:1053B000FFF7F3FF28B940F202220649064836F00B
:1053C00035FAE068FFF71AFF03462046BDE81040B3
:1053D000184700BF6793090872930908F8B5064695
:1053E0000025FFF76BF906F51D74D6F8B432AB4211
:1053F0000AD920462746FFF7D0FF103420B138469F
:105400000135FFF7D3FFF0E7F8BD0000044BC360A0
:1054100003460A6843F8042B002242605A60704732
:105420002C97090813B50446019121B9FCF7ECFD4E
:10543000204602B010BD01A9FFF7E8FFF8E710B45D
:10544000D0E9003409686210E4075DF8044B01EB11
:10545000020044BF8A58D35818470146043008B5A3
:10546000FFF7EDFF08BD0000034A0346C26007C90D
:1054700083E80700704700BF2097090810B586B081
:1054800004460391684606A980E80C0001E90C0077
:10549000204603A9FFF7E8FF204606B010BD37B548
:1054A0006C46054684E80C0094E80C00FFF7E6FF24
:1054B000284603B030BD00002DE9F04188B0044615
:1054C000FFF7ECF8384B2046C4F87032FFF7EEF8DF
:1054D000364B04A8214602930023039302AB0CCB66
:1054E000FFF7DDFF2046FFF7D9F8D4F8B402032810
:1054F00003D92046FFF7DAF80AE0431C04EB00105A
:1055000004A9C4F8B43200F51D70FFF739FFF0E7C5
:1055100004A8FDF7D9FABC2037F0BEF905460646C7
:10552000234B05F1400746F8043B3046FDF7C5FA2A
:105530000021384637F0DAFC05F15408404637F0D0
:1055400073FC1C4B4FF480721821284600930023F3
:1055500037F05CFD184904A8C4F85C52FFF762FFFD
:1055600004A9284637F0C6FD10E0404637F09CFC01
:10557000384637F0FAFC3046FDF7A6FABC2128463B
:1055800037F0BEF948F0FAFBF2E7F4E704A8FDF7BC
:105590009BFA2046FEF770FC08B0BDE8F08104A835
:1055A000FDF792FAEEE7FAE7E9510408793E0408BC
:1055B000BC590A08389709081D510408A0F5A070C5
:1055C000FFF77ABF0368184708B5FFF7FBFF08BD70
:1055D00008B5FFF742FF08BD08B5FFF7F9FF08BDA2
:1055E00037B50F4C0F4D204637F0B0FB2A460E4919
:1055F000204636F0F7FE42F2120301220B4CCDE9B1
:10560000003200224FF4F85320461146FFF750FEB7
:105610002A460749204603B0BDE8304036F0E2BED6
:1056200098250024000000246DCD0708E022002406
:105630002D52040808B54AF0F1FA2DE9F04F027D29
:1056400085B005460E46012A40F08E8000214FF0BD
:10565000FF3B04460B465F4694F804C048B2BCF1D9
:10566000000F73D194F805C0BCF1000F6ED1B7F1F3
:10567000FF3F17BF0133012338465BB2934201DD80
:105680001A4683460131023408295DD1002402EB19
:105690000B03A1460293CB4502DC029B4B4558DC31
:1056A00095F8058095F804A04FEA281708F00F0830
:1056B0000AF00F035FEA2A1AFAB201926FD05FFA7A
:1056C0008AF1BAF1090F30460393D4BF3031573114
:1056D00000F0C8F8039B0444092B3046039394BFA1
:1056E00003F1300103F1570100F0BCF80444BAF1B2
:1056F000000F02D1039B03B94FB1092F019F304620
:10570000D4BF30375737F9B200F0ACF80444B8F1E1
:10571000090F304694BF08F1300108F1570100F03D
:10572000A1F8B9F1070F044404D03A21304600F043
:1057300099F8044409F101090235B9F1080FAAD119
:10574000204605B0BDE8F08F074685E74FF0FF30F3
:1057500098E7CB45EED1BBF1000FE6D13A213046B8
:1057600000F080F80444E0E700F1100700F11309AD
:10577000002417F8011B0A22304600F003F9804686
:105780002E21304600F06EF8B94540440444F0D173
:105790000A22E97C304600F0F5F80444D0E7002BFB
:1057A0009AD1A9E7054B102210B504460360017594
:1057B000002104304CF084F9204610BD649809089B
:1057C00010B504460021FFF7EDFF204610BD000094
:1057D00070B5074D8374056000259DF81030057580
:1057E00045608560C56001744274C37470BD00BFBC
:1057F00064980908037D13B91031084470470431D7
:10580000FBE7000007B501210648FFF7CBFF0023A7
:1058100005481A4619460093FFF7DAFF03B05DF812
:1058200004FB00BFAC250024C425002470B5044649
:1058300008460D464CF0E4FE236802462946204601
:105840005B68BDE87040184709B1FFF7EFBF084635
:10585000704703688A685B680968184708B5FFF7EE
:10586000F3FF08BD03681B6818470B460A6801462A
:1058700012681846104700000149FFF7D7BF00BF64
:1058800025970A0838B50546FFF7DEFF0446284687
:10589000FFF7F2FF204438BD38B50546FFF7D9FFC2
:1058A00004462846FFF7E8FF204438BD38B50546D2
:1058B000FFF7CAFF04462846FFF7DEFF204438BD45
:1058C00038B50546FFF7D1FF04462846FFF7D4FF59
:1058D000204438BD70B58AB00D460023012A98BF18
:1058E0000A220AA901F8043DB5FBF2F402FB1456A2
:1058F0002546F3B2092E94BF30333733DBB201F8BB
:10590000013D002CF0D1FFF79FFF0AB070BD2DE9DB
:10591000F04107460E4615462AB90368C9B21B680E
:10592000BDE8F04118470A2A05D1002905DBBDE88A
:10593000F041FFF7CFBFD2B2F9E72D21FFF792FF79
:1059400004462A4671423846FFF7C4FF2044BDE8AA
:10595000F081FFF7DCBF38B50546FFF7D8FF0446F6
:105960002846FFF789FF204438BD10B42AB90368E0
:10597000C9B25DF8044B1B681847D2B25DF8044BFE
:10598000FFF7A8BFFFF7F1BF38B50546FFF7EDFFFA
:1059900004462846FFF770FF204438BD10B5044682
:1059A00000F0E0F9E060236820465B699847002832
:1059B00008DA00F0D7F9E368C01AA3689842F2D376
:1059C0004FF0FF3010BD0A68002302604A68426051
:1059D0008A6882608B60C1E90033704710B5044665
:1059E000006808B14BF026FC204610BD10B50446F7
:1059F000006808B14BF01EFC00232360C4E90133AA
:105A000010BD38B504460D46006801314CF00EF962
:105A100010B1C4E90005012038BD036810B5044683
:105A200023B143688B4201D3012010BD2046FFF70C
:105A3000E8FF0028F9D0A368002BF5D12268137085
:105A4000F3E770B50E46114604461546FFF7E5FF2D
:105A500020B92046FFF7CAFF204670BD2A463146CE
:105A6000A56020684BF02EFF2268A3680021D15466
:105A7000F2E738B5002304460D468360C0E90033E1
:105A800039B108464CF0BCFD294602462046FFF7D6
:105A9000D8FF204638BD38B505460C4608464CF0C0
:105AA000AFFD214602462846BDE83840FFF7C9BF92
:105AB00010B500238AB00446084601A9A360C4E9D2
:105AC000003300F016F9204601A9FFF7E4FF204655
:105AD0000AB010BD88420B4610B5044604D00968D0
